{
  "_format": "hh-sol-artifact-1",
  "contractName": "Dis3cord",
  "sourceName": "contracts/Dis3cord.sol",
  "abi": [
    {
      "inputs": [
        {
          "internalType": "string",
          "name": "name",
          "type": "string"
        },
        {
          "internalType": "uint256",
          "name": "price",
          "type": "uint256"
        },
        {
          "internalType": "string",
          "name": "description",
          "type": "string"
        },
        {
          "internalType": "string",
          "name": "imageCID",
          "type": "string"
        }
      ],
      "name": "createDAO",
      "outputs": [
        {
          "internalType": "address",
          "name": "",
          "type": "address"
        }
      ],
      "stateMutability": "nonpayable",
      "type": "function"
    },
    {
      "inputs": [
        {
          "internalType": "uint256",
          "name": "",
          "type": "uint256"
        }
      ],
      "name": "daos",
      "outputs": [
        {
          "internalType": "contract Dis3DAO",
          "name": "",
          "type": "address"
        }
      ],
      "stateMutability": "view",
      "type": "function"
    },
    {
      "inputs": [],
      "name": "getAllDAOs",
      "outputs": [
        {
          "internalType": "contract Dis3DAO[]",
          "name": "",
          "type": "address[]"
        }
      ],
      "stateMutability": "view",
      "type": "function"
    },
    {
      "inputs": [],
      "name": "getOwnerDAOs",
      "outputs": [
        {
          "internalType": "address[]",
          "name": "",
          "type": "address[]"
        }
      ],
      "stateMutability": "view",
      "type": "function"
    },
    {
      "inputs": [],
      "name": "getUserDAOs",
      "outputs": [
        {
          "internalType": "address[]",
          "name": "",
          "type": "address[]"
        }
      ],
      "stateMutability": "view",
      "type": "function"
    }
  ],
  "bytecode": "0x608060405234801561001057600080fd5b50613b60806100206000396000f3fe60806040523480156200001157600080fd5b50600436106200006f5760003560e01c8063abd41aab1162000056578063abd41aab14620000a0578063ccbbd26014620000aa578063e0fe24ca14620000da57600080fd5b80630d1c0ed414620000745780633cb2c68a1462000096575b600080fd5b6200007e620000f1565b6040516200008d9190620009d4565b60405180910390f35b6200007e620003b7565b6200007e6200041b565b620000c1620000bb366004620008f4565b620006b6565b6040516001600160a01b0390911681526020016200008d565b620000c1620000eb3660046200085c565b620006e1565b60606000805b600054811015620001e857600081815481106200012457634e487b7160e01b600052603260045260246000fd5b6000918252602091829020015460408051638da5cb5b60e01b815290516001600160a01b0390921692638da5cb5b92600480840193829003018186803b1580156200016e57600080fd5b505afa15801562000183573d6000803e3d6000fd5b505050506040513d601f19601f82011682018060405250810190620001a991906200082c565b6001600160a01b0316336001600160a01b03161415620001d35781620001cf8162000a23565b9250505b80620001df8162000a23565b915050620000f7565b5060008167ffffffffffffffff8111156200021357634e487b7160e01b600052604160045260246000fd5b6040519080825280602002602001820160405280156200023d578160200160208202803683370190505b5090506000805b600054811015620003ae57600081815481106200027157634e487b7160e01b600052603260045260246000fd5b6000918252602091829020015460408051638da5cb5b60e01b815290516001600160a01b0390921692638da5cb5b92600480840193829003018186803b158015620002bb57600080fd5b505afa158015620002d0573d6000803e3d6000fd5b505050506040513d601f19601f82011682018060405250810190620002f691906200082c565b6001600160a01b0316336001600160a01b031614156200039957600081815481106200033257634e487b7160e01b600052603260045260246000fd5b9060005260206000200160009054906101000a90046001600160a01b03168383815181106200037157634e487b7160e01b600052603260045260246000fd5b6001600160a01b039092166020928302919091019091015281620003958162000a23565b9250505b80620003a58162000a23565b91505062000244565b50909392505050565b606060008054806020026020016040519081016040528092919081815260200182805480156200041157602002820191906000526020600020905b81546001600160a01b03168152600190910190602001808311620003f2575b5050505050905090565b60606000805b6000548110156200050157600081815481106200044e57634e487b7160e01b600052603260045260246000fd5b6000918252602090912001546040516370a0823160e01b81523360048201526001600160a01b03909116906370a082319060240160206040518083038186803b1580156200049b57600080fd5b505afa158015620004b0573d6000803e3d6000fd5b505050506040513d601f19601f82011682018060405250810190620004d691906200090d565b15620004ec5781620004e88162000a23565b9250505b80620004f88162000a23565b91505062000421565b5060008167ffffffffffffffff8111156200052c57634e487b7160e01b600052604160045260246000fd5b60405190808252806020026020018201604052801562000556578160200160208202803683370190505b5090506000805b600054811015620003ae57600081815481106200058a57634e487b7160e01b600052603260045260246000fd5b6000918252602090912001546040516370a0823160e01b81523360048201526001600160a01b03909116906370a082319060240160206040518083038186803b158015620005d757600080fd5b505afa158015620005ec573d6000803e3d6000fd5b505050506040513d601f19601f820116820180604052508101906200061291906200090d565b15620006a157600081815481106200063a57634e487b7160e01b600052603260045260246000fd5b9060005260206000200160009054906101000a90046001600160a01b03168383815181106200067957634e487b7160e01b600052603260045260246000fd5b6001600160a01b0390921660209283029190910190910152816200069d8162000a23565b9250505b80620006ad8162000a23565b9150506200055d565b60008181548110620006c757600080fd5b6000918252602090912001546001600160a01b0316905081565b6000803386868686604051620006f7906200078f565b6200070795949392919062000974565b604051809103906000f08015801562000724573d6000803e3d6000fd5b50600080546001810182559080527f290decd9548b62a8d60345a988386fc84ba6bc95484008f6362f93160ef3e5630180547fffffffffffffffffffffffff0000000000000000000000000000000000000000166001600160a01b0383161790559695505050505050565b6130c98062000a6283390190565b600082601f830112620007ae578081fd5b813567ffffffffffffffff80821115620007cc57620007cc62000a4b565b604051601f8301601f19908116603f01168101908282118183101715620007f757620007f762000a4b565b8160405283815286602085880101111562000810578485fd5b8360208701602083013792830160200193909352509392505050565b6000602082840312156200083e578081fd5b81516001600160a01b038116811462000855578182fd5b9392505050565b6000806000806080858703121562000872578283fd5b843567ffffffffffffffff808211156200088a578485fd5b62000898888389016200079d565b9550602087013594506040870135915080821115620008b5578384fd5b620008c3888389016200079d565b93506060870135915080821115620008d9578283fd5b50620008e8878288016200079d565b91505092959194509250565b60006020828403121562000906578081fd5b5035919050565b6000602082840312156200091f578081fd5b5051919050565b60008151808452815b818110156200094d576020818501810151868301820152016200092f565b818111156200095f5782602083870101525b50601f01601f19169290920160200192915050565b6001600160a01b038616815260a0602082015260006200099860a083018762000926565b8560408401528281036060840152620009b2818662000926565b90508281036080840152620009c8818562000926565b98975050505050505050565b6020808252825182820181905260009190848201906040850190845b8181101562000a175783516001600160a01b031683529284019291840191600101620009f0565b50909695505050505050565b600060001982141562000a4457634e487b7160e01b81526011600452602481fd5b5060010190565b634e487b7160e01b600052604160045260246000fdfe608060405266470de4df820000600e553480156200001c57600080fd5b50604051620030c9380380620030c98339810160408190526200003f9162000916565b8384604051602001620000539190620009fe565b60408051601f19818403018152919052815162000078906000906020850190620007e1565b5080516200008e906001906020840190620007e1565b5050600d80546001600160a01b0319166001600160a01b038816179055508351620000c190600a906020870190620007e1565b50600e8390558151620000dc90600b906020850190620007e1565b508051620000f290600c906020840190620007e1565b50600d546011546200010e916001600160a01b03169062000130565b60118054906000620001208362000b22565b9190505550505050505062000b6c565b620001528282604051806020016040528060008152506200015660201b60201c565b5050565b620001628383620001d2565b62000171600084848462000328565b620001cd5760405162461bcd60e51b81526020600482015260326024820152600080516020620030a983398151915260448201527131b2b4bb32b91034b6b83632b6b2b73a32b960711b60648201526084015b60405180910390fd5b505050565b6001600160a01b0382166200022a5760405162461bcd60e51b815260206004820181905260248201527f4552433732313a206d696e7420746f20746865207a65726f20616464726573736044820152606401620001c4565b6000818152600260205260409020546001600160a01b031615620002915760405162461bcd60e51b815260206004820152601c60248201527f4552433732313a20746f6b656e20616c7265616479206d696e746564000000006044820152606401620001c4565b6200029f6000838362000491565b6001600160a01b0382166000908152600360205260408120805460019290620002ca90849062000a7d565b909155505060008181526002602052604080822080546001600160a01b0319166001600160a01b03861690811790915590518392907fddf252ad1be2c89b69c2b068fc378daa952ba7f163c4a11628f55a4df523b3ef908290a45050565b600062000349846001600160a01b03166200056d60201b620013161760201c565b156200048557604051630a85bd0160e11b81526001600160a01b0385169063150b7a02906200038390339089908890889060040162000a27565b602060405180830381600087803b1580156200039e57600080fd5b505af1925050508015620003d1575060408051601f3d908101601f19168201909252620003ce91810190620009cd565b60015b6200046a573d80801562000402576040519150601f19603f3d011682016040523d82523d6000602084013e62000407565b606091505b508051620004625760405162461bcd60e51b81526020600482015260326024820152600080516020620030a983398151915260448201527131b2b4bb32b91034b6b83632b6b2b73a32b960711b6064820152608401620001c4565b805181602001fd5b6001600160e01b031916630a85bd0160e11b14905062000489565b5060015b949350505050565b620004a9838383620001cd60201b620008c61760201c565b6001600160a01b03831662000507576200050181600880546000838152600960205260408120829055600182018355919091527ff3f7a9fe364faab93b216da50a3214154f22a0a2b415b23a84c8169e8b636ee30155565b6200052d565b816001600160a01b0316836001600160a01b0316146200052d576200052d83826200057c565b6001600160a01b0382166200054757620001cd8162000629565b826001600160a01b0316826001600160a01b031614620001cd57620001cd828262000707565b6001600160a01b03163b151590565b6000600162000596846200075860201b62000e551760201c565b620005a2919062000a98565b600083815260076020526040902054909150808214620005f6576001600160a01b03841660009081526006602090815260408083208584528252808320548484528184208190558352600790915290208190555b5060009182526007602090815260408084208490556001600160a01b039094168352600681528383209183525290812055565b6008546000906200063d9060019062000a98565b600083815260096020526040812054600880549394509092849081106200067457634e487b7160e01b600052603260045260246000fd5b906000526020600020015490508060088381548110620006a457634e487b7160e01b600052603260045260246000fd5b6000918252602080832090910192909255828152600990915260408082208490558582528120556008805480620006eb57634e487b7160e01b600052603160045260246000fd5b6001900381819060005260206000200160009055905550505050565b60006200071f836200075860201b62000e551760201c565b6001600160a01b039093166000908152600660209081526040808320868452825280832085905593825260079052919091209190915550565b60006001600160a01b038216620007c55760405162461bcd60e51b815260206004820152602a60248201527f4552433732313a2062616c616e636520717565727920666f7220746865207a65604482015269726f206164647265737360b01b6064820152608401620001c4565b506001600160a01b031660009081526003602052604090205490565b828054620007ef9062000ae5565b90600052602060002090601f0160209004810192826200081357600085556200085e565b82601f106200082e57805160ff19168380011785556200085e565b828001600101855582156200085e579182015b828111156200085e57825182559160200191906001019062000841565b506200086c92915062000870565b5090565b5b808211156200086c576000815560010162000871565b600082601f83011262000898578081fd5b81516001600160401b0380821115620008b557620008b562000b56565b604051601f8301601f19908116603f01168101908282118183101715620008e057620008e062000b56565b81604052838152866020858801011115620008f9578485fd5b6200090c84602083016020890162000ab2565b9695505050505050565b600080600080600060a086880312156200092e578081fd5b85516001600160a01b038116811462000945578182fd5b60208701519095506001600160401b038082111562000962578283fd5b6200097089838a0162000887565b95506040880151945060608801519150808211156200098d578283fd5b6200099b89838a0162000887565b93506080880151915080821115620009b1578283fd5b50620009c08882890162000887565b9150509295509295909350565b600060208284031215620009df578081fd5b81516001600160e01b031981168114620009f7578182fd5b9392505050565b6000825162000a1281846020870162000ab2565b6213919560ea1b920191825250600301919050565b600060018060a01b03808716835280861660208401525083604083015260806060830152825180608084015262000a668160a085016020870162000ab2565b601f01601f19169190910160a00195945050505050565b6000821982111562000a935762000a9362000b40565b500190565b60008282101562000aad5762000aad62000b40565b500390565b60005b8381101562000acf57818101518382015260200162000ab5565b8381111562000adf576000848401525b50505050565b600181811c9082168062000afa57607f821691505b6020821081141562000b1c57634e487b7160e01b600052602260045260246000fd5b50919050565b600060001982141562000b395762000b3962000b40565b5060010190565b634e487b7160e01b600052601160045260246000fd5b634e487b7160e01b600052604160045260246000fd5b61252d8062000b7c6000396000f3fe6080604052600436106101ae5760003560e01c806356bb72a5116100eb578063a22cb4651161008f578063bcfb9b6111610061578063bcfb9b61146104c6578063c87b56dd146104e6578063e985e9c514610506578063edc4400a1461054f57005b8063a22cb4651461045b578063a78d80fc1461047b578063a7c43f2c14610491578063b88d4fde146104a657005b80637284e416116100c85780637284e416146103fc5780637362377b146104115780638da5cb5b1461042657806395d89b411461044657005b806356bb72a5146103a75780636352211e146103bc57806370a08231146103dc57005b806318160ddd1161015257806335facf781161012f57806335facf781461033457806342842e0e146103545780634f6ccce71461037457806351ed82881461039457005b806318160ddd146102df57806323b872dd146102f45780632f745c591461031457005b8063081812fc1161018b578063081812fc14610243578063095ea7b31461027b5780630d39fc811461029b5780630d61b519146102bf57005b8063013cf08b146101b757806301ffc9a7146101f157806306fdde031461022157005b366101b557005b005b3480156101c357600080fd5b506101d76101d236600461228a565b61056f565b6040516101e895949392919061236e565b60405180910390f35b3480156101fd57600080fd5b5061021161020c3660046121fc565b610629565b60405190151581526020016101e8565b34801561022d57600080fd5b5061023661066d565b6040516101e8919061235b565b34801561024f57600080fd5b5061026361025e36600461228a565b6106ff565b6040516001600160a01b0390911681526020016101e8565b34801561028757600080fd5b506101b56102963660046121d3565b610799565b3480156102a757600080fd5b506102b1600e5481565b6040519081526020016101e8565b3480156102cb57600080fd5b506101b56102da36600461228a565b6108cb565b3480156102eb57600080fd5b506008546102b1565b34801561030057600080fd5b506101b561030f3660046120f6565b610a09565b34801561032057600080fd5b506102b161032f3660046121d3565b610a90565b34801561034057600080fd5b506101b561034f366004612234565b610b38565b34801561036057600080fd5b506101b561036f3660046120f6565b610bcf565b34801561038057600080fd5b506102b161038f36600461228a565b610bea565b6101b56103a236600461228a565b610c9c565b3480156103b357600080fd5b50610236610d3c565b3480156103c857600080fd5b506102636103d736600461228a565b610dca565b3480156103e857600080fd5b506102b16103f73660046120aa565b610e55565b34801561040857600080fd5b50610236610eef565b34801561041d57600080fd5b506101b5610efc565b34801561043257600080fd5b50600d54610263906001600160a01b031681565b34801561045257600080fd5b50610236610f92565b34801561046757600080fd5b506101b56104763660046121aa565b610fa1565b34801561048757600080fd5b506102b1600f5481565b34801561049d57600080fd5b50610236610fac565b3480156104b257600080fd5b506101b56104c1366004612131565b610fb9565b3480156104d257600080fd5b506101b56104e13660046122a2565b611047565b3480156104f257600080fd5b5061023661050136600461228a565b6111c1565b34801561051257600080fd5b506102116105213660046120c4565b6001600160a01b03918216600090815260056020908152604080832093909416825291909152205460ff1690565b34801561055b57600080fd5b506101b561056a36600461228a565b6112b7565b60106020526000908152604090208054819061058a90612435565b80601f01602080910402602001604051908101604052809291908181526020018280546105b690612435565b80156106035780601f106105d857610100808354040283529160200191610603565b820191906000526020600020905b8154815290600101906020018083116105e657829003601f168201915b505050506001830154600284015460038501546004909501549394919390925060ff1685565b60006001600160e01b031982167f780e9d63000000000000000000000000000000000000000000000000000000001480610667575061066782611325565b92915050565b60606000805461067c90612435565b80601f01602080910402602001604051908101604052809291908181526020018280546106a890612435565b80156106f55780601f106106ca576101008083540402835291602001916106f5565b820191906000526020600020905b8154815290600101906020018083116106d857829003601f168201915b5050505050905090565b6000818152600260205260408120546001600160a01b031661077d5760405162461bcd60e51b815260206004820152602c60248201527f4552433732313a20617070726f76656420717565727920666f72206e6f6e657860448201526b34b9ba32b73a103a37b5b2b760a11b60648201526084015b60405180910390fd5b506000908152600460205260409020546001600160a01b031690565b60006107a482610dca565b9050806001600160a01b0316836001600160a01b0316141561082e5760405162461bcd60e51b815260206004820152602160248201527f4552433732313a20617070726f76616c20746f2063757272656e74206f776e6560448201527f72000000000000000000000000000000000000000000000000000000000000006064820152608401610774565b336001600160a01b038216148061084a575061084a8133610521565b6108bc5760405162461bcd60e51b815260206004820152603860248201527f4552433732313a20617070726f76652063616c6c6572206973206e6f74206f7760448201527f6e6572206e6f7220617070726f76656420666f7220616c6c00000000000000006064820152608401610774565b6108c683836113c0565b505050565b60006108d633610e55565b116109125760405162461bcd60e51b815260206004820152600c60248201526b2727aa10209026a2a6a122a960a11b6044820152606401610774565b60008181526010602052604090206001015481904210156109755760405162461bcd60e51b815260206004820152601560248201527f444541444c494e455f4e4f545f455843454544454400000000000000000000006044820152606401610774565b60008181526010602052604090206004015460ff16156109d75760405162461bcd60e51b815260206004820152601960248201527f50524f504f53414c5f414c52454144595f4558454355544544000000000000006044820152606401610774565b60008281526010602052604090206003810154600282015411156108c65760048101805460ff19166001179055505050565b610a13338261143b565b610a855760405162461bcd60e51b815260206004820152603160248201527f4552433732313a207472616e736665722063616c6c6572206973206e6f74206f60448201527f776e6572206e6f7220617070726f7665640000000000000000000000000000006064820152608401610774565b6108c6838383611532565b6000610a9b83610e55565b8210610b0f5760405162461bcd60e51b815260206004820152602b60248201527f455243373231456e756d657261626c653a206f776e657220696e646578206f7560448201527f74206f6620626f756e64730000000000000000000000000000000000000000006064820152608401610774565b506001600160a01b03919091166000908152600660209081526040808320938352929052205490565b6000610b4333610e55565b11610b7f5760405162461bcd60e51b815260206004820152600c60248201526b2727aa10209026a2a6a122a960a11b6044820152606401610774565b600f54600090815260106020908152604090912083519091610ba5918391860190611f6f565b50610bb082426123a7565b6001820155600f8054906000610bc583612470565b9190505550505050565b6108c683838360405180602001604052806000815250610fb9565b6000610bf560085490565b8210610c695760405162461bcd60e51b815260206004820152602c60248201527f455243373231456e756d657261626c653a20676c6f62616c20696e646578206f60448201527f7574206f6620626f756e647300000000000000000000000000000000000000006064820152608401610774565b60088281548110610c8a57634e487b7160e01b600052603260045260246000fd5b90600052602060002001549050919050565b80600e54610caa91906123d3565b341015610cf95760405162461bcd60e51b815260206004820152601260248201527f494e53554646494349454e5420455448455200000000000000000000000000006044820152606401610774565b60005b81811015610d3857610d1033601154611717565b60118054906000610d2083612470565b91905055508080610d3090612470565b915050610cfc565b5050565b600c8054610d4990612435565b80601f0160208091040260200160405190810160405280929190818152602001828054610d7590612435565b8015610dc25780601f10610d9757610100808354040283529160200191610dc2565b820191906000526020600020905b815481529060010190602001808311610da557829003601f168201915b505050505081565b6000818152600260205260408120546001600160a01b0316806106675760405162461bcd60e51b815260206004820152602960248201527f4552433732313a206f776e657220717565727920666f72206e6f6e657869737460448201527f656e7420746f6b656e00000000000000000000000000000000000000000000006064820152608401610774565b60006001600160a01b038216610ed35760405162461bcd60e51b815260206004820152602a60248201527f4552433732313a2062616c616e636520717565727920666f7220746865207a6560448201527f726f2061646472657373000000000000000000000000000000000000000000006064820152608401610774565b506001600160a01b031660009081526003602052604090205490565b600b8054610d4990612435565b600d546001600160a01b03163314610f565760405162461bcd60e51b815260206004820152601b60248201527f52657175657374204e6f7420726169736564206279204f776e657200000000006044820152606401610774565b600d546040516001600160a01b03909116904780156108fc02916000818181858888f19350505050158015610f8f573d6000803e3d6000fd5b50565b60606001805461067c90612435565b610d38338383611731565b600a8054610d4990612435565b610fc3338361143b565b6110355760405162461bcd60e51b815260206004820152603160248201527f4552433732313a207472616e736665722063616c6c6572206973206e6f74206f60448201527f776e6572206e6f7220617070726f7665640000000000000000000000000000006064820152608401610774565b61104184848484611800565b50505050565b600061105233610e55565b1161108e5760405162461bcd60e51b815260206004820152600c60248201526b2727aa10209026a2a6a122a960a11b6044820152606401610774565b600082815260106020526040902060010154829042106110f05760405162461bcd60e51b815260206004820152601160248201527f444541444c494e455f45584345454445440000000000000000000000000000006044820152606401610774565b60008381526010602052604081209061110833610e55565b90506000805b828110156111795760006111223383610a90565b600081815260058701602052604090205490915060ff16611166578261114781612470565b60008381526005880160205260409020805460ff191660011790559350505b508061117181612470565b91505061110e565b50841561119f578083600201600082825461119491906123a7565b909155506111b99050565b808360030160008282546111b391906123a7565b90915550505b505050505050565b6000818152600260205260409020546060906001600160a01b031661124e5760405162461bcd60e51b815260206004820152602f60248201527f4552433732314d657461646174613a2055524920717565727920666f72206e6f60448201527f6e6578697374656e7420746f6b656e00000000000000000000000000000000006064820152608401610774565b600061126560408051602081019091526000815290565b9050600081511161128557604051806020016040528060008152506112b0565b8061128f8461187e565b6040516020016112a09291906122f0565b6040516020818303038152906040525b9392505050565b600d546001600160a01b031633146113115760405162461bcd60e51b815260206004820152601b60248201527f52657175657374204e6f7420726169736564206279204f776e657200000000006044820152606401610774565b600e55565b6001600160a01b03163b151590565b60006001600160e01b031982167f80ac58cd00000000000000000000000000000000000000000000000000000000148061138857506001600160e01b031982167f5b5e139f00000000000000000000000000000000000000000000000000000000145b8061066757507f01ffc9a7000000000000000000000000000000000000000000000000000000006001600160e01b0319831614610667565b6000818152600460205260409020805473ffffffffffffffffffffffffffffffffffffffff19166001600160a01b038416908117909155819061140282610dca565b6001600160a01b03167f8c5be1e5ebec7d5bd14f71427d1e84f3dd0314c0f7b2291e5b200ac8c7c3b92560405160405180910390a45050565b6000818152600260205260408120546001600160a01b03166114b45760405162461bcd60e51b815260206004820152602c60248201527f4552433732313a206f70657261746f7220717565727920666f72206e6f6e657860448201526b34b9ba32b73a103a37b5b2b760a11b6064820152608401610774565b60006114bf83610dca565b9050806001600160a01b0316846001600160a01b0316148061150657506001600160a01b0380821660009081526005602090815260408083209388168352929052205460ff165b8061152a5750836001600160a01b031661151f846106ff565b6001600160a01b0316145b949350505050565b826001600160a01b031661154582610dca565b6001600160a01b0316146115c15760405162461bcd60e51b815260206004820152602560248201527f4552433732313a207472616e736665722066726f6d20696e636f72726563742060448201527f6f776e65720000000000000000000000000000000000000000000000000000006064820152608401610774565b6001600160a01b03821661163c5760405162461bcd60e51b8152602060048201526024808201527f4552433732313a207472616e7366657220746f20746865207a65726f2061646460448201527f72657373000000000000000000000000000000000000000000000000000000006064820152608401610774565b6116478383836119cc565b6116526000826113c0565b6001600160a01b038316600090815260036020526040812080546001929061167b9084906123f2565b90915550506001600160a01b03821660009081526003602052604081208054600192906116a99084906123a7565b9091555050600081815260026020526040808220805473ffffffffffffffffffffffffffffffffffffffff19166001600160a01b0386811691821790925591518493918716917fddf252ad1be2c89b69c2b068fc378daa952ba7f163c4a11628f55a4df523b3ef91a4505050565b610d38828260405180602001604052806000815250611a84565b816001600160a01b0316836001600160a01b031614156117935760405162461bcd60e51b815260206004820152601960248201527f4552433732313a20617070726f766520746f2063616c6c6572000000000000006044820152606401610774565b6001600160a01b03838116600081815260056020908152604080832094871680845294825291829020805460ff191686151590811790915591519182527f17307eab39ab6107e8899845ad3d59bd9653f200f220920489ca2b5937696c31910160405180910390a3505050565b61180b848484611532565b61181784848484611b02565b6110415760405162461bcd60e51b815260206004820152603260248201527f4552433732313a207472616e7366657220746f206e6f6e20455243373231526560448201527131b2b4bb32b91034b6b83632b6b2b73a32b960711b6064820152608401610774565b6060816118be57505060408051808201909152600181527f3000000000000000000000000000000000000000000000000000000000000000602082015290565b8160005b81156118e857806118d281612470565b91506118e19050600a836123bf565b91506118c2565b60008167ffffffffffffffff81111561191157634e487b7160e01b600052604160045260246000fd5b6040519080825280601f01601f19166020018201604052801561193b576020820181803683370190505b5090505b841561152a576119506001836123f2565b915061195d600a8661248b565b6119689060306123a7565b60f81b81838151811061198b57634e487b7160e01b600052603260045260246000fd5b60200101907effffffffffffffffffffffffffffffffffffffffffffffffffffffffffffff1916908160001a9053506119c5600a866123bf565b945061193f565b6001600160a01b038316611a2757611a2281600880546000838152600960205260408120829055600182018355919091527ff3f7a9fe364faab93b216da50a3214154f22a0a2b415b23a84c8169e8b636ee30155565b611a4a565b816001600160a01b0316836001600160a01b031614611a4a57611a4a8382611c5a565b6001600160a01b038216611a61576108c681611cf7565b826001600160a01b0316826001600160a01b0316146108c6576108c68282611dd0565b611a8e8383611e14565b611a9b6000848484611b02565b6108c65760405162461bcd60e51b815260206004820152603260248201527f4552433732313a207472616e7366657220746f206e6f6e20455243373231526560448201527131b2b4bb32b91034b6b83632b6b2b73a32b960711b6064820152608401610774565b60006001600160a01b0384163b15611c4f57604051630a85bd0160e11b81526001600160a01b0385169063150b7a0290611b4690339089908890889060040161231f565b602060405180830381600087803b158015611b6057600080fd5b505af1925050508015611b90575060408051601f3d908101601f19168201909252611b8d91810190612218565b60015b611c35573d808015611bbe576040519150601f19603f3d011682016040523d82523d6000602084013e611bc3565b606091505b508051611c2d5760405162461bcd60e51b815260206004820152603260248201527f4552433732313a207472616e7366657220746f206e6f6e20455243373231526560448201527131b2b4bb32b91034b6b83632b6b2b73a32b960711b6064820152608401610774565b805181602001fd5b6001600160e01b031916630a85bd0160e11b14905061152a565b506001949350505050565b60006001611c6784610e55565b611c7191906123f2565b600083815260076020526040902054909150808214611cc4576001600160a01b03841660009081526006602090815260408083208584528252808320548484528184208190558352600790915290208190555b5060009182526007602090815260408084208490556001600160a01b039094168352600681528383209183525290812055565b600854600090611d09906001906123f2565b60008381526009602052604081205460088054939450909284908110611d3f57634e487b7160e01b600052603260045260246000fd5b906000526020600020015490508060088381548110611d6e57634e487b7160e01b600052603260045260246000fd5b6000918252602080832090910192909255828152600990915260408082208490558582528120556008805480611db457634e487b7160e01b600052603160045260246000fd5b6001900381819060005260206000200160009055905550505050565b6000611ddb83610e55565b6001600160a01b039093166000908152600660209081526040808320868452825280832085905593825260079052919091209190915550565b6001600160a01b038216611e6a5760405162461bcd60e51b815260206004820181905260248201527f4552433732313a206d696e7420746f20746865207a65726f20616464726573736044820152606401610774565b6000818152600260205260409020546001600160a01b031615611ecf5760405162461bcd60e51b815260206004820152601c60248201527f4552433732313a20746f6b656e20616c7265616479206d696e746564000000006044820152606401610774565b611edb600083836119cc565b6001600160a01b0382166000908152600360205260408120805460019290611f049084906123a7565b9091555050600081815260026020526040808220805473ffffffffffffffffffffffffffffffffffffffff19166001600160a01b03861690811790915590518392907fddf252ad1be2c89b69c2b068fc378daa952ba7f163c4a11628f55a4df523b3ef908290a45050565b828054611f7b90612435565b90600052602060002090601f016020900481019282611f9d5760008555611fe3565b82601f10611fb657805160ff1916838001178555611fe3565b82800160010185558215611fe3579182015b82811115611fe3578251825591602001919060010190611fc8565b50611fef929150611ff3565b5090565b5b80821115611fef5760008155600101611ff4565b600067ffffffffffffffff80841115612023576120236124cb565b604051601f8501601f19908116603f0116810190828211818310171561204b5761204b6124cb565b8160405280935085815286868601111561206457600080fd5b858560208301376000602087830101525050509392505050565b80356001600160a01b038116811461209557600080fd5b919050565b8035801515811461209557600080fd5b6000602082840312156120bb578081fd5b6112b08261207e565b600080604083850312156120d6578081fd5b6120df8361207e565b91506120ed6020840161207e565b90509250929050565b60008060006060848603121561210a578081fd5b6121138461207e565b92506121216020850161207e565b9150604084013590509250925092565b60008060008060808587031215612146578081fd5b61214f8561207e565b935061215d6020860161207e565b925060408501359150606085013567ffffffffffffffff81111561217f578182fd5b8501601f8101871361218f578182fd5b61219e87823560208401612008565b91505092959194509250565b600080604083850312156121bc578182fd5b6121c58361207e565b91506120ed6020840161209a565b600080604083850312156121e5578182fd5b6121ee8361207e565b946020939093013593505050565b60006020828403121561220d578081fd5b81356112b0816124e1565b600060208284031215612229578081fd5b81516112b0816124e1565b60008060408385031215612246578182fd5b823567ffffffffffffffff81111561225c578283fd5b8301601f8101851361226c578283fd5b61227b85823560208401612008565b95602094909401359450505050565b60006020828403121561229b578081fd5b5035919050565b600080604083850312156122b4578182fd5b823591506120ed6020840161209a565b600081518084526122dc816020860160208601612409565b601f01601f19169290920160200192915050565b60008351612302818460208801612409565b835190830190612316818360208801612409565b01949350505050565b60006001600160a01b0380871683528086166020840152508360408301526080606083015261235160808301846122c4565b9695505050505050565b6020815260006112b060208301846122c4565b60a08152600061238160a08301886122c4565b905085602083015284604083015283606083015282151560808301529695505050505050565b600082198211156123ba576123ba61249f565b500190565b6000826123ce576123ce6124b5565b500490565b60008160001904831182151516156123ed576123ed61249f565b500290565b6000828210156124045761240461249f565b500390565b60005b8381101561242457818101518382015260200161240c565b838111156110415750506000910152565b600181811c9082168061244957607f821691505b6020821081141561246a57634e487b7160e01b600052602260045260246000fd5b50919050565b60006000198214156124845761248461249f565b5060010190565b60008261249a5761249a6124b5565b500690565b634e487b7160e01b600052601160045260246000fd5b634e487b7160e01b600052601260045260246000fd5b634e487b7160e01b600052604160045260246000fd5b6001600160e01b031981168114610f8f57600080fdfea26469706673582212201321b7b985ad15fcb5307c275f54e6fbaaf2c88dc6271048badf8dd55e939fb364736f6c634300080400334552433732313a207472616e7366657220746f206e6f6e204552433732315265a2646970667358221220614406658d7dc5a0feb92e130c5a013920f9080cbbff76e3f0bb0a36bd469b7864736f6c63430008040033",
  "linkReferences": {},
  "deployedLinkReferences": {}
}